:1000000029C0000037C0000035C0000033C0000028
:1000100031C000002FC000002DC000002BC0000028
:1000200029C0000027C0000025C0000023C0000038
:1000300021C000001FC000001DC000001BC0000048
:1000400019C0000017C0000015C0000013C0000058
:1000500011C0000011241FBECFE5D4E0DEBFCDBF2C
:1000600020E0A0E6B0E001C01D92A237B207E1F7A0
:1000700060D1BAC1C5CF9BB321E030E001C0220FEF
:100080008A95EAF7209529232BBB0895883291059C
:1000900009F4A2C04CF58831910509F483C09CF4A1
:1000A0008231910509F46EC08431910509F472C062
:1000B000419709F0BCC0209161008091600090E000
:1000C000820F911D9FC08232910509F471C0843264
:1000D000910509F47BC0819709F0A9C09091600057
:1000E0008091610089237DC08834910509F445C061
:1000F000ACF482349105C9F18434910589F18134DD
:10010000910509F094C01092610010926000109265
:100110006D0010926C0080E090E07DC08238910507
:1001200091F02CF48138910509F466C00895843863
:10013000910521F08838910571F008958091610052
:10014000880F816003C080916100880F80936100F7
:1001500080936500089510926100109265000895E3
:1001600080916000880F816003C080916000880FDB
:100170008093600080936400089510926000109254
:10018000640008958091610090916000899FC00192
:10019000112438C08091610090E020916000821BA2
:1001A000910930C0809161006091600011D119C047
:1001B00080916100609160000BD1292F30E0309375
:1001C0006D0020936C009093630013C090916000C9
:1001D00080916100892705C0909160008091610045
:1001E000892B282F30E030936D0020936C00809392
:1001F000630010926200089580916C0090916D00F0
:100200008095909590936D0080936C00809363002F
:10021000909362000895FC01EE59FF4F1082019601
:1002200084309105C1F790936F0080936E0008951C
:10023000CF93DF931092690010926800C1E0D0E084
:10024000809168009091690084309105ACF59E0121
:1002500002C0220F331F8A95E2F722BB80B3807F52
:1002600090E0909371008093700087EC90E001978C
:10027000F1F700C00000809170009091710000972C
:1002800089F09E010090680002C0220F331F0A947B
:10029000E2F7822B932BFADE8FE193E00197F1F7DF
:1002A00000C00000809168009091690001969093D1
:1002B000690080936800C4CFDF91CF910895672BC8
:1002C00009F4D9CE4BB321E030E0B90102C0660F8A
:1002D000771F8A95E2F7CB01842B8BBB08950F9390
:1002E0001F93CF93DF93082F84E090E0C4DE86E075
:1002F00090E0C1DEC7E0D0E010E086E090E0BBDE39
:10030000B8010C2E02C0759567950A94E2F76170EA
:10031000772784E090E0D3DFDE9A84E090E0ABDEE4
:10032000219758F786E090E0DF91CF911F910F91D0
:10033000A2CE8FE081BB8FEF8ABBC1E0D0E01092EC
:100340006B0010926A0020916A0030916B0024309B
:100350003105ACF78091660090916700019690930B
:10036000670080936600CE0101C0880F2A95EAF7E6
:100370008BBB85E090E07FDEE0916A00F0916B003E
:10038000EE59FF4F8081ABDFDD9A8091660090913E
:1003900067008D37910531F44BDF109267001092A2
:1003A000660006C08FEC97E00197F1F700C00000EF
:1003B00085E090E060DE80E092DFDD9A80916A0067
:1003C00090916B00019690936B0080936A00BBCF75
:1003D000991B79E004C0991F961708F0961B881F97
:0C03E0007A95C9F780950895F894FFCF36
:00000001FF
