S00B00004243532E7372656341
S1130000A1C00000AFC00000ADC00000ABC0000044
S1130010A9C00000A7C00000A5C00000A3C0000044
S1130020A1C000009FC000009DC000009BC0000054
S113003099C0000097C0000095C0000093C0000064
S113004091C000008FC000008DC000008BC0000074
S113005089C000001801E8008B01F8008B018B01B6
S11300608B0108018B018B018B018B018B018B01AF
S11300708B018B01580128018B0138018B018B0105
S11300808B0148018B018B018B018B018B018B014F
S11300908B018B018B018B018B018B018B018B01FC
S11300A08B018B018B018B018B018B018B018B01EC
S11300B08B018B017701DB008B01D2008B018B015B
S11300C08B01E3008B018B018B018B018B018B0175
S11300D08B018B018B018B018B018B018B018B01BC
S11300E08B018B018B018B018B018B018B018B01AC
S11300F08B018B018B018B018B018B018B018B019C
S11301008B018B018B018B018B018B018B018B018B
S11301108B018B018B018B018B018B018B018B017B
S11301208B018B018B018B018B018B018B018B016B
S11301308B018B016801C5008B01BC008B018B0115
S11301408B01CD0011241FBECFE5D4E0DEBFCDBFAF
S113015020E0A0E6B0E001C01D92A237B207E1F7AB
S11301607AD1E9C14DCF41978837910508F0D3C0C2
S1130170865D9F4FFC01D9C180916100880F816029
S11301808093610080936500089580916100880FD9
S1130190809361008093650008951092610010922D
S11301A06500089580916000880F816080936000ED
S11301B080936400089580916000880F80936000AC
S11301C08093640008951092600010926400089572
S11301D08091610090916000899FC00111249093E7
S11301E06D0080936C00E2E6F0E0818390830895D3
S11301F08091610090E020916000821B91099093AE
S11302006D0080936C00E2E6F0E0818390830895B2
S113021080916100609160007CD1282F30E03093A0
S11302206D0020936C00E2E6F0E081831082089573
S1130230209161008091600090E0820F911D909365
S11302406D0080936C00E2E6F0E081839083089572
S113025080916100609160005CD1292F30E030937F
S11302606D0020936C00E2E6F0E091831082089523
S113027090916000809161008927282F30E03093AD
S11302806D0020936C00E2E6F0E081831082089513
S11302909091600080916100892B282F30E0309389
S11302A06D0020936C00E2E6F0E0818310820895F3
S11302B090916000809161008923282F30E0309371
S11302C06D0020936C00E2E6F0E0818310820895D3
S11302D080916C0090916D008095909590936D0045
S11302E080936C00E2E6F0E081839083089510929D
S11302F061001092600010926D0010926C00E2E6B2
S1130300F0E0108211821282138284E090E09093D4
S11303106F0080936E0008950F931F93CF93DF9324
S1130320109269001092680080E090E001E010E013
S1130330C8E6D0E0980102C0220F331F8A95E2F785
S113034022BB80B3807F90E0909371008093700013
S113035087EC90E00197F1F700C0000080917000F5
S113036090917100009781F09801088002C0220FDB
S1130370331F0A94E2F7822B932BF5DE8FE193E08F
S11303800197F1F700C00000809168009091690026
S1130390019690936900809368008430910554F22B
S11303A0DF91CF911F910F910895672B71F44BB397
S11303B021E030E0B90102C0660F771F8A95E2F7A9
S11303C0CB01809584238BBB08954BB321E030E0AF
S11303D0B90102C0660F771F8A95E2F7CB01842B1F
S11303E08BBB08950F931F93CF93DF93082F60E087
S11303F070E084E090E0D9DF60E070E086E090E0B7
S1130400D4DFC7E0D0E010E060E070E086E090E088
S1130410CCDFB8010C2E02C0759567950A94E2F7FB
S11304206170772784E090E0C0DF61E070E086E0EF
S113043090E0BBDF60E070E084E090E0B6DF2197FD
S113044018F760E070E086E090E0AFDFDF91CF91D5
S11304501F910F9108958FE08ABB8FEF81BBC1E09C
S1130460D0E00C2F1D2F10926B0010926A0080E0D8
S113047090E020916600309167002F5F3F4F3093EA
S11304806700209366009E0102C0220F331F8A95E5
S1130490E2F72BBB60E070E085E090E086DFE0915E
S11304A06A00F0916B00EE59FF4F80819BDF602F53
S11304B0712F85E090E079DF80916600909167006C
S11304C08D37910531F428DF109267001092660091
S11304D006C08FEC97E00197F1F700C0000060E0E0
S11304E070E085E090E061DF80E07CDF602F712FB9
S11304F085E090E05ADF80916A0090916B0001964C
S113050090936B0080936A00843091050CF4B1CF12
S1130510AACF991B79E004C0991F961708F0961B7F
S1130520881F7A95C9F780950895EE0FFF1F0590EF
S10D0530F491E02D0994F894FFCF34
S9030000FC
