S010000042435320434F44452E7372656301
S11300000C94A2000C94B4000C94B4000C94B400AE
S11300100C94B4000C94B4000C94B4000C94B4008C
S11300200C94B4000C94B4000C94B4000C94B4007C
S11300300C94B4000C94B4000C94B4000C94B4006C
S11300400C94B4000C94B4000C94B4000C94B4005C
S11300500C94B4001D01EC009101FC00910191018C
S113006091010C0191019101910191019101910181
S1130070910191015E012D0191013E0191019101D6
S113008091014E019101910191019101910191011F
S113009091019101910191019101910191019101CC
S11300A091019101910191019101910191019101BC
S11300B0910191017D01DF009101D600910191012F
S11300C09101E70091019101910191019101910147
S11300D0910191019101910191019101910191018C
S11300E0910191019101910191019101910191017C
S11300F0910191019101910191019101910191016C
S1130100910191019101910191019101910191015B
S1130110910191019101910191019101910191014B
S1130120910191019101910191019101910191013B
S1130130910191016E01C9009101C00091019101E9
S11301409101D10011241FBECFE5D4E0DEBFCDBFA5
S113015020E0A0E6B0E001C01D92A237B207E1F7AB
S11301600E9439020C94B0020C9400004197883725
S1130170910508F0D6C0865D9F4FFC010C94AA023D
S113018080916100880F8160809361008093650095
S1130190089580916100880F8093610080936500C9
S11301A00895109261001092650008958091600096
S11301B0880F81608093600080936400089580912B
S11301C06000880F8093600080936400089510920B
S11301D06000109264000895809161009091600025
S11301E0899FC001112490936D0080936C00E2E616
S11301F0F0E08183908308958091610090E02091E4
S11302006000821B910990936D0080936C00E2E67C
S1130210F0E0818390830895809161006091600093
S11302200E949E02282F30E030936D0020936C00D2
S1130230E2E6F0E0818310820895209161008091CC
S1130240600090E0820F911D90936D0080936C008C
S1130250E2E6F0E0818390830895809161006091EB
S113026060000E949E02292F30E030936D0020939D
S11302706C00E2E6F0E091831082089590916000B2
S1130280809161008927282F30E030936D002093FE
S11302906C00E2E6F0E081831082089590916000A2
S11302A080916100892B282F30E030936D002093DA
S11302B06C00E2E6F0E08183108208959091600082
S11302C0809161008923282F30E030936D002093C2
S11302D06C00E2E6F0E081831082089580916C0066
S11302E090916D008095909590936D0080936C0033
S11302F0E2E6F0E081839083089510926100109209
S1130300600010926D0010926C00E2E6F0E0108242
S113031011821282138284E090E090936F008093A4
S11303206E0008950F931F93CF93DF93109269008B
S11303301092680080E090E001E010E0C8E6D0E0B0
S1130340980102C0220F331F8A95E2F722BB80B3C3
S1130350807F90E090937100809370008FE891E02B
S11303600197F1F700C00000809170009091710036
S1130370009789F09801088002C0220F331F0A9465
S1130380E2F7822B932B0E94B6008FE396E001974D
S1130390F1F700C000008091680090916900019617
S11303A09093690080936800843091054CF2DF914A
S11303B0CF911F910F910895672B71F44BB321E0F6
S11303C030E0B90102C0660F771F8A95E2F7CB01CE
S11303D0809584238BBB08954BB321E030E0B901B1
S11303E002C0660F771F8A95E2F7CB01842B8BBB83
S11303F008950F931F93CF93DF93082F60E070E06D
S113040084E090E00E94DC0160E070E086E090E02F
S11304100E94DC01C7E0D0E010E060E070E086E01C
S113042090E00E94DC01B8010C2E02C0759567951E
S11304300A94E2F76170772784E090E00E94DC017F
S113044061E070E086E090E00E94DC0160E070E032
S113045084E090E00E94DC012197F8F660E070E00F
S113046086E090E00E94DC01DF91CF911F910F9113
S113047008958FE081BB8FEF8ABBC1E0D0E00C2FE1
S11304801D2F10926B0010926A0080E090E0209182
S11304906600309167002F5F3F4F309367002093D1
S11304A066009E0102C0220F331F8A95E2F72BBB20
S11304B060E070E085E090E00E94DC01E0916A0079
S11304C0F0916B00EE59FF4F80810E94F901602F7B
S11304D0712F85E090E00E94DC018091660090918C
S11304E067008D37910539F40E94920110926700DC
S11304F01092660006C08FE99FE00197F1F700C0F3
S1130500000060E070E085E090E00E94DC0180E0A3
S11305100E94F901602F712F85E090E00E94DC01B8
S113052080916A0090916B00019690936B00809388
S11305306A00843091050CF4AACFA3CF991B79E00B
S113054004C0991F961708F0961B881F7A95C9F75F
S113055080950895EE0FFF1F0590F491E02D099406
S1070560F894FFCF39
S9030000FC
